:100000000C9472000C9494000C9494000C94940042
:100010000C9494000C9494000C9494000C94940010
:100020000C9494000C9494000C9494000C94940000
:100030000C9494000C9494000C9494000C949400F0
:100040000C9494000C94C4000C94DD010C94940066
:100050000C9494000C9494000C9494000C949400D0
:100060000C9494000C9494000C9494000C949400C0
:100070000C9494000C9494000C9494000C949400B0
:100080000C9494000C9494000C9494000C949400A0
:100090000C9494000C9494000C9494000C94940090
:1000A0000C9494000C9494000C9494000C94940080
:1000B0000C9494000C9494000C9494000C94940070
:1000C0000C9494000C9494000C9494000C94940060
:1000D0000C9494000C9494000C9494000C94940050
:1000E0000C94940011241FBECFEFD1E2DEBFCDBF30
:1000F00000E00CBF12E0A0E0B2E0E8ECFAE000E0C3
:100100000BBF02C007900D92A430B107D9F71BBEF8
:1001100012E0A4E0B2E001C01D92A532B107E1F700
:100120000E94FB020C9462050C940000DF93CF93B5
:1001300000D00F92CDB7DEB79A8389837C836B831F
:10014000F89489819A812EE0893D920720F088ED0C
:100150009EE09A83898389819A81865E9B4F9A83E8
:1001600089838B819C81880F991FFC01EB5FFD4F78
:1001700089819A819183808378940F900F900F905A
:100180000F90CF91DF9108951F920F920FB60F92AB
:1001900000905B000F9211242F933F938F939F93B6
:1001A000AF93BF93EF93FF93DF93CF93CDB7DEB7BA
:1001B000809104028823B1F4A1E3B0E0E1E3F0E030
:1001C000808181608C93A8E8B0E0E8E8F0E02081CD
:1001D00031818091070290910802820F931F11963E
:1001E0009C938E93809104028130E1F4A1E3B0E00E
:1001F000E1E3F0E080818E7F8C93A8E8B0E020916D
:100200000102309102028091070290910802281B9E
:10021000390BE8E8F0E080819181820F931F1196FD
:100220009C938E93809104028230B1F4A1E3B0E0FC
:10023000E1E3F0E0808182608C93A8E8B0E0E8E838
:10024000F0E0208131818091090290910A02820FB1
:10025000931F11969C938E93809104028330E1F456
:10026000A1E3B0E0E1E3F0E080818D7F8C93A8E82A
:10027000B0E0209101023091020280910902909138
:100280000A02281B390BE8E8F0E080819181820F97
:10029000931F11969C938E93809104028430B1F445
:1002A000A1E3B0E0E1E3F0E0808184608C93A8E812
:1002B000B0E0E8E8F0E02081318180910B0290917C
:1002C0000C02820F931F11969C938E9380910402CF
:1002D0008530E1F4A1E3B0E0E1E3F0E080818B7FE1
:1002E0008C93A8E8B0E02091010230910202809145
:1002F0000B0290910C02281B390BE8E8F0E080819A
:100300009181820F931F11969C938E93809104028A
:100310008630B1F4A1E3B0E0E1E3F0E080818860F1
:100320008C93A8E8B0E0E8E8F0E02081318180918A
:100330000D0290910E02820F931F11969C938E9343
:10034000809104028730E1F4A1E3B0E0E1E3F0E062
:100350008081877F8C93A8E8B0E0209101023091E2
:10036000020280910D0290910E02281B390BE8E8E1
:10037000F0E080819181820F931F11969C938E9360
:10038000809104028F5F8093040280910402883080
:1003900011F410920402CF91DF91FF91EF91BF9180
:1003A000AF919F918F913F912F910F9000925B00A1
:1003B0000F900FBE0F901F9018951F920F920FB6BF
:1003C0000F9200905B000F9211242F933F938F9315
:1003D0009F93AF93BF93EF93FF93DF93CF93CDB7EB
:1003E000DEB7809100028830B1F4A1E3B0E0E1E330
:1003F000F0E0808180618C93AAE8B0E0EAE8F0E068
:100400002081318180910F0290911002820F931F01
:1004100011969C938E93809100028930E1F4A1E3C0
:10042000B0E0E1E3F0E080818F7E8C93AAE8B0E059
:10043000209101023091020280910F0290911002EE
:10044000281B390BEAE8F0E080819181820F931F2D
:1004500011969C938E93809100028A30B1F4A1E3AF
:10046000B0E0E1E3F0E0808180628C93AAE8B0E044
:10047000EAE8F0E02081318180911102909112022E
:10048000820F931F11969C938E93809100028B3064
:10049000E1F4A1E3B0E0E1E3F0E080818F7D8C93B3
:1004A000AAE8B0E02091010230910202809111028D
:1004B00090911202281B390BEAE8F0E080819181CB
:1004C000820F931F11969C938E93809100028C3023
:1004D000B1F4A1E3B0E0E1E3F0E0808180648C93CB
:1004E000AAE8B0E0EAE8F0E02081318180911302CF
:1004F00090911402820F931F11969C938E9380917A
:1005000000028D30E1F4A1E3B0E0E1E3F0E08081AE
:100510008F7B8C93AAE8B0E0209101023091020217
:100520008091130290911402281B390BEAE8F0E045
:1005300080819181820F931F11969C938E9380915D
:1005400000028E30B1F4A1E3B0E0E1E3F0E080819D
:1005500080688C93AAE8B0E0EAE8F0E0208131817D
:100560008091150290911602820F931F11969C9311
:100570008E93809100028F30E1F4A1E3B0E0E1E3DB
:10058000F0E080818F778C93AAE8B0E0209101029F
:10059000309102028091150290911602281B390BAE
:1005A000EAE8F0E080819181820F931F11969C937D
:1005B0008E9380910002803139F488E080930002AC
:1005C000E4E8F0E011821082809100028F5F809356
:1005D0000002CF91DF91FF91EF91BF91AF919F9179
:1005E0008F913F912F910F9000925B000F900FBE63
:1005F0000F901F901895DF93CF93CDB7DEB76C9710
:100600000FB6F894DEBF0FBECDBFE0E3F0E08FEF92
:100610008083E7E2F0E08FEF8083E4E2F0E08FEFA9
:100620008083E1E3F0E01082E8E2F0E01082E5E8A8
:10063000F0E01082E4E8F0E01082AFE6B0E0EFE630
:10064000F0E0808186608C937894E8E8F0E0118295
:100650001082EAE8F0E011821082A1E8B0E0E1E85F
:10066000F0E0808182608C938CE697E061E070E03E
:100670000E9496008CEA9DE062E070E00E94960085
:100680008CEA9DE063E070E00E9496008CEA9DE0B9
:1006900064E070E00E9496008CEA9DE068E070E003
:1006A0000E949600E5E2F0E08FEF808380E090E02A
:1006B000AAE7B5E4898F9A8FAB8FBC8F698D7A8D4D
:1006C0008B8D9C8D20E030E04AE755E40E94D704F2
:1006D000DC01CB018D8B9E8BAF8BB88F6D897E89B2
:1006E0008F89988D20E030E040E85FE30E94560457
:1006F00088232CF481E090E09C8B8B8B3FC06D892C
:100700007E898F89988D20E03FEF4FE757E40E9464
:10071000D30418164CF5698D7A8D8B8D9C8D20E055
:1007200030E040E251E40E94D704DC01CB01BC017F
:10073000CD010E945A04DC01CB019C8B8B8B0FC036
:1007400080E991E09A8B898B89899A890197F1F7E1
:100750009A8B898B8B899C8901979C8B8B8B8B893E
:100760009C89009769F714C06D897E898F89988D5F
:100770000E945A04DC01CB019C8B8B8B8B899C895A
:10078000988B8F878F8598890197F1F7988B8F8742
:1007900080E090E062E070E00E94960080E090E0EF
:1007A00063E070E00E94960080E090E064E070E01A
:1007B0000E94960080E090E068E070E00E94960061
:1007C000E5E2F0E0108280E090E0AAE7B5E48B87F4
:1007D0009C87AD87BE876B857C858D859E8520E057
:1007E00030E04AE755E40E94D704DC01CB018F8357
:1007F0009887A987BA876F81788589859A8520E04F
:1008000030E040E85FE30E94560488232CF481E046
:1008100090E09E838D833FC06F81788589859A851E
:1008200020E03FEF4FE757E40E94D30418164CF541
:100830006B857C858D859E8520E030E040E251E42B
:100840000E94D704DC01CB01BC01CD010E945A04F7
:10085000DC01CB019E838D830FC080E991E09C83F6
:100860008B838B819C810197F1F79C838B838D8196
:100870009E8101979E838D838D819E81009769F76C
:10088000F9CE6F81788589859A850E945A04DC01AA
:10089000CB019E838D838D819E819A8389838981FB
:1008A0009A810197F1F79A838983E4CE2FD008F4D7
:1008B00081E0089557D088F09F5790F0B92F99277D
:1008C000B751A0F0D1F0660F771F881F991F1AF05B
:1008D000BA95C9F712C0B13081F05ED0B1E0089589
:1008E0005BC0672F782F8827B85F39F0B93FCCF30A
:1008F000869577956795B395D9F73EF49095809551
:10090000709561957F4F8F4F9F4F0895990F000805
:10091000550FAA0BE0E8FEEF16161706E807F907D1
:10092000C0F012161306E407F50798F0621B730B6C
:10093000840B950B39F40A2661F0232B242B252BED
:1009400021F408950A2609F4A140A6958FEF811D90
:10095000811D089557FD9058440F551F59F05F3F72
:1009600071F04795880F97FB991F61F09F3F79F0D1
:1009700087950895121613061406551FF2CF469553
:10098000F1DF08C0161617061806991FF1CF8695D5
:100990007105610508940895E894BB2766277727B9
:1009A000CB0197F90895B2DF08F48FEF08950BD0CB
:1009B00078C069D028F06ED018F0952309F05AC09D
:1009C0005FC01124EACFC6DFA0F3959FD1F3950F46
:1009D00050E0551F629FF001729FBB27F00DB11DC3
:1009E000639FAA27F00DB11DAA1F649F6627B00D53
:1009F000A11D661F829F2227B00DA11D621F739F3C
:100A0000B00DA11D621F839FA00D611D221F749F49
:100A10003327A00D611D231F849F600D211D822F90
:100A2000762F6A2F11249F5750408AF0E1F08823D7
:100A30004AF0EE0FFF1FBB1F661F771F881F9150E4
:100A40005040A9F79E3F510570F014C0A6CF5F3FFC
:100A5000ECF3983EDCF3869577956795B795F79517
:100A6000E7959F5FC1F7FE2B880F911D969587959F
:100A700097F9089597F99F6780E870E060E008951E
:100A80009FEF80EC089500240A94161617061806A6
:100A90000906089500240A94121613061406050682
:100AA0000895092E0394000C11F4882352F0BB0F13
:100AB00040F4BF2B11F460FF04C06F5F7F4F8F4F76
:080AC0009F4F0895F894FFCF49
:040AC80008102700EB
:00000001FF
